{
    "_format": "hh-sol-artifact-1",
    "contractName": "KawsICO",
    "sourceName": "contracts/Projects/KawsICO/KawsTokenICO.sol",
    "abi": [
        {
            "inputs": [
                {
                    "internalType": "address payable",
                    "name": "_deposit",
                    "type": "address"
                }
            ],
            "stateMutability": "nonpayable",
            "type": "constructor"
        },
        {
            "anonymous": false,
            "inputs": [
                {
                    "indexed": true,
                    "internalType": "address",
                    "name": "owner",
                    "type": "address"
                },
                {
                    "indexed": true,
                    "internalType": "address",
                    "name": "spender",
                    "type": "address"
                },
                {
                    "indexed": false,
                    "internalType": "uint256",
                    "name": "value",
                    "type": "uint256"
                }
            ],
            "name": "Approval",
            "type": "event"
        },
        {
            "anonymous": false,
            "inputs": [
                {
                    "indexed": false,
                    "internalType": "address",
                    "name": "_investor",
                    "type": "address"
                },
                {
                    "indexed": false,
                    "internalType": "uint256",
                    "name": "value",
                    "type": "uint256"
                },
                {
                    "indexed": false,
                    "internalType": "uint256",
                    "name": "tokens",
                    "type": "uint256"
                }
            ],
            "name": "Invest",
            "type": "event"
        },
        {
            "anonymous": false,
            "inputs": [
                {
                    "indexed": true,
                    "internalType": "address",
                    "name": "from",
                    "type": "address"
                },
                {
                    "indexed": true,
                    "internalType": "address",
                    "name": "to",
                    "type": "address"
                },
                {
                    "indexed": false,
                    "internalType": "uint256",
                    "name": "value",
                    "type": "uint256"
                }
            ],
            "name": "Transfer",
            "type": "event"
        },
        {
            "inputs": [
                {
                    "internalType": "address",
                    "name": "owner",
                    "type": "address"
                },
                {
                    "internalType": "address",
                    "name": "spender",
                    "type": "address"
                }
            ],
            "name": "allowance",
            "outputs": [
                {
                    "internalType": "uint256",
                    "name": "",
                    "type": "uint256"
                }
            ],
            "stateMutability": "view",
            "type": "function"
        },
        {
            "inputs": [
                {
                    "internalType": "address",
                    "name": "",
                    "type": "address"
                },
                {
                    "internalType": "address",
                    "name": "",
                    "type": "address"
                }
            ],
            "name": "allowed",
            "outputs": [
                {
                    "internalType": "uint256",
                    "name": "",
                    "type": "uint256"
                }
            ],
            "stateMutability": "view",
            "type": "function"
        },
        {
            "inputs": [
                {
                    "internalType": "address",
                    "name": "spender",
                    "type": "address"
                },
                {
                    "internalType": "uint256",
                    "name": "value",
                    "type": "uint256"
                }
            ],
            "name": "approve",
            "outputs": [
                {
                    "internalType": "bool",
                    "name": "",
                    "type": "bool"
                }
            ],
            "stateMutability": "nonpayable",
            "type": "function"
        },
        {
            "inputs": [
                {
                    "internalType": "address",
                    "name": "who",
                    "type": "address"
                }
            ],
            "name": "balanceOf",
            "outputs": [
                {
                    "internalType": "uint256",
                    "name": "",
                    "type": "uint256"
                }
            ],
            "stateMutability": "view",
            "type": "function"
        },
        {
            "inputs": [
                {
                    "internalType": "address",
                    "name": "",
                    "type": "address"
                }
            ],
            "name": "balances",
            "outputs": [
                {
                    "internalType": "uint256",
                    "name": "",
                    "type": "uint256"
                }
            ],
            "stateMutability": "view",
            "type": "function"
        },
        {
            "inputs": [],
            "name": "barbEthMultiplier",
            "outputs": [
                {
                    "internalType": "uint256",
                    "name": "",
                    "type": "uint256"
                }
            ],
            "stateMutability": "view",
            "type": "function"
        },
        {
            "inputs": [],
            "name": "burn",
            "outputs": [
                {
                    "internalType": "bool",
                    "name": "",
                    "type": "bool"
                }
            ],
            "stateMutability": "nonpayable",
            "type": "function"
        },
        {
            "inputs": [
                {
                    "internalType": "address payable",
                    "name": "_deposit",
                    "type": "address"
                }
            ],
            "name": "changeDepositAddress",
            "outputs": [],
            "stateMutability": "nonpayable",
            "type": "function"
        },
        {
            "inputs": [],
            "name": "decimals",
            "outputs": [
                {
                    "internalType": "uint256",
                    "name": "",
                    "type": "uint256"
                }
            ],
            "stateMutability": "view",
            "type": "function"
        },
        {
            "inputs": [],
            "name": "deposit",
            "outputs": [
                {
                    "internalType": "address payable",
                    "name": "",
                    "type": "address"
                }
            ],
            "stateMutability": "view",
            "type": "function"
        },
        {
            "inputs": [],
            "name": "founder",
            "outputs": [
                {
                    "internalType": "address",
                    "name": "",
                    "type": "address"
                }
            ],
            "stateMutability": "view",
            "type": "function"
        },
        {
            "inputs": [],
            "name": "getCurrentState",
            "outputs": [
                {
                    "internalType": "enum KawsICO.State",
                    "name": "",
                    "type": "uint8"
                }
            ],
            "stateMutability": "view",
            "type": "function"
        },
        {
            "inputs": [],
            "name": "halt",
            "outputs": [],
            "stateMutability": "nonpayable",
            "type": "function"
        },
        {
            "inputs": [],
            "name": "hardCap",
            "outputs": [
                {
                    "internalType": "uint256",
                    "name": "",
                    "type": "uint256"
                }
            ],
            "stateMutability": "view",
            "type": "function"
        },
        {
            "inputs": [],
            "name": "icoState",
            "outputs": [
                {
                    "internalType": "enum KawsICO.State",
                    "name": "",
                    "type": "uint8"
                }
            ],
            "stateMutability": "view",
            "type": "function"
        },
        {
            "inputs": [],
            "name": "invest",
            "outputs": [
                {
                    "internalType": "bool",
                    "name": "",
                    "type": "bool"
                }
            ],
            "stateMutability": "payable",
            "type": "function"
        },
        {
            "inputs": [],
            "name": "maxInvestment",
            "outputs": [
                {
                    "internalType": "uint256",
                    "name": "",
                    "type": "uint256"
                }
            ],
            "stateMutability": "view",
            "type": "function"
        },
        {
            "inputs": [],
            "name": "minInvestment",
            "outputs": [
                {
                    "internalType": "uint256",
                    "name": "",
                    "type": "uint256"
                }
            ],
            "stateMutability": "view",
            "type": "function"
        },
        {
            "inputs": [],
            "name": "name",
            "outputs": [
                {
                    "internalType": "string",
                    "name": "",
                    "type": "string"
                }
            ],
            "stateMutability": "view",
            "type": "function"
        },
        {
            "inputs": [],
            "name": "raisedAmount",
            "outputs": [
                {
                    "internalType": "uint256",
                    "name": "",
                    "type": "uint256"
                }
            ],
            "stateMutability": "view",
            "type": "function"
        },
        {
            "inputs": [],
            "name": "resume",
            "outputs": [],
            "stateMutability": "nonpayable",
            "type": "function"
        },
        {
            "inputs": [],
            "name": "symbol",
            "outputs": [
                {
                    "internalType": "string",
                    "name": "",
                    "type": "string"
                }
            ],
            "stateMutability": "view",
            "type": "function"
        },
        {
            "inputs": [],
            "name": "timeEnd",
            "outputs": [
                {
                    "internalType": "uint256",
                    "name": "",
                    "type": "uint256"
                }
            ],
            "stateMutability": "view",
            "type": "function"
        },
        {
            "inputs": [],
            "name": "timeStart",
            "outputs": [
                {
                    "internalType": "uint256",
                    "name": "",
                    "type": "uint256"
                }
            ],
            "stateMutability": "view",
            "type": "function"
        },
        {
            "inputs": [],
            "name": "totalSupply",
            "outputs": [
                {
                    "internalType": "uint256",
                    "name": "",
                    "type": "uint256"
                }
            ],
            "stateMutability": "view",
            "type": "function"
        },
        {
            "inputs": [
                {
                    "internalType": "address",
                    "name": "to",
                    "type": "address"
                },
                {
                    "internalType": "uint256",
                    "name": "value",
                    "type": "uint256"
                }
            ],
            "name": "transfer",
            "outputs": [
                {
                    "internalType": "bool",
                    "name": "",
                    "type": "bool"
                }
            ],
            "stateMutability": "nonpayable",
            "type": "function"
        },
        {
            "inputs": [
                {
                    "internalType": "address",
                    "name": "from",
                    "type": "address"
                },
                {
                    "internalType": "address",
                    "name": "to",
                    "type": "address"
                },
                {
                    "internalType": "uint256",
                    "name": "value",
                    "type": "uint256"
                }
            ],
            "name": "transferFrom",
            "outputs": [
                {
                    "internalType": "bool",
                    "name": "",
                    "type": "bool"
                }
            ],
            "stateMutability": "nonpayable",
            "type": "function"
        },
        {
            "inputs": [],
            "name": "unlockTokens",
            "outputs": [
                {
                    "internalType": "uint256",
                    "name": "",
                    "type": "uint256"
                }
            ],
            "stateMutability": "view",
            "type": "function"
        },
        {
            "stateMutability": "payable",
            "type": "receive"
        }
    ],
    "bytecode": "0x60806040526103e8600555681043561a88293000006006554260085561003762093a806008546100fd60201b610ad31790919060201c565b6009556100566224ea006009546100fd60201b610ad31790919060201c565b600a55674563918244f40000600b5567016345785d8a0000600c5534801561007d57600080fd5b50604051620010b5380380620010b583398101604081905261009e91610110565b693f870857a3e0e3800000600081815560018054336001600160a01b031991821681179092559082526002602052604090912091909155600480549091166001600160a01b0392909216919091179055600d805460ff1916905561015f565b60006101098284610139565b9392505050565b60006020828403121561012257600080fd5b81516001600160a01b038116811461010957600080fd5b6000821982111561015a57634e487b7160e01b600052601160045260246000fd5b500190565b610f46806200016f6000396000f3fe6080604052600436106101ba5760003560e01c80635ed7ca5b116100ec578063d0e30db01161008a578063f968f49311610064578063f968f49314610525578063fb86a4041461053b578063fd74d29414610551578063fda263e81461056757600080fd5b8063d0e30db0146104b7578063dd62ed3e146104d7578063e8b5e51f1461051d57600080fd5b80638ac2c680116100c65780638ac2c6801461043b57806395d89b4114610451578063a9059cbb14610481578063c59ee1dc146104a157600080fd5b80635ed7ca5b146103d05780636d58c88f146103e557806370a082311461040557600080fd5b806327e235e31161015957806344df8e701161013357806344df8e701461033157806344f38756146103465780634d853ee5146103605780635c6581651461039857600080fd5b806327e235e3146102cd578063313ce567146102fa578063378aa7011461030f57600080fd5b8063095ea7b311610195578063095ea7b314610251578063144e8bb31461028157806318160ddd1461029757806323b872dd146102ad57600080fd5b80622e1316146101cf578063046f7da2146101f857806306fdde031461020f57600080fd5b366101ca576101c761057d565b50005b600080fd5b3480156101db57600080fd5b506101e5600b5481565b6040519081526020015b60405180910390f35b34801561020457600080fd5b5061020d61083f565b005b34801561021b57600080fd5b506102446040518060400160405280600981526020016825b0bbb99021b7b4b760b91b81525081565b6040516101ef9190610e29565b34801561025d57600080fd5b5061027161026c366004610dd5565b61086c565b60405190151581526020016101ef565b34801561028d57600080fd5b506101e560055481565b3480156102a357600080fd5b506101e560005481565b3480156102b957600080fd5b506102716102c8366004610d94565b610925565b3480156102d957600080fd5b506101e56102e8366004610d3e565b60026020526000908152604090205481565b34801561030657600080fd5b506101e5601281565b34801561031b57600080fd5b5061032461094b565b6040516101ef9190610e01565b34801561033d57600080fd5b506102716109a7565b34801561035257600080fd5b50600d546103249060ff1681565b34801561036c57600080fd5b50600154610380906001600160a01b031681565b6040516001600160a01b0390911681526020016101ef565b3480156103a457600080fd5b506101e56103b3366004610d5b565b600360209081526000928352604080842090915290825290205481565b3480156103dc57600080fd5b5061020d610a4b565b3480156103f157600080fd5b5061020d610400366004610d3e565b610a76565b34801561041157600080fd5b506101e5610420366004610d3e565b6001600160a01b031660009081526002602052604090205490565b34801561044757600080fd5b506101e5600c5481565b34801561045d57600080fd5b50610244604051806040016040528060048152602001634b41575360e01b81525081565b34801561048d57600080fd5b5061027161049c366004610dd5565b610aaf565b3480156104ad57600080fd5b506101e560075481565b3480156104c357600080fd5b50600454610380906001600160a01b031681565b3480156104e357600080fd5b506101e56104f2366004610d5b565b6001600160a01b03918216600090815260036020908152604080832093909416825291909152205490565b61027161057d565b34801561053157600080fd5b506101e5600a5481565b34801561054757600080fd5b506101e560065481565b34801561055d57600080fd5b506101e560085481565b34801561057357600080fd5b506101e560095481565b600061058761094b565b600d805460ff191660018360038111156105a3576105a3610ee2565b02179055506001600d5460ff1660038111156105c1576105c1610ee2565b146106095760405162461bcd60e51b81526020600482015260136024820152721250d3c81a185cc81b9bdd081cdd185c9d1959606a1b60448201526064015b60405180910390fd5b600c54341015801561061d5750600b543411155b6106695760405162461bcd60e51b815260206004820152601d60248201527f496e766573746d656e7420706172616d6574657273206e6f74206d65740000006044820152606401610600565b6006546007546106799034610ad3565b11156106c75760405162461bcd60e51b815260206004820152601860248201527f4861726463617020686173206265656e207265616368656400000000000000006044820152606401610600565b60006106de60055434610ae690919063ffffffff16565b6001546001600160a01b031660009081526002602052604090205490915081111561074b5760405162461bcd60e51b815260206004820152601c60248201527f4e6f7420656e6f75676820424152425320696e207265736572766573000000006044820152606401610600565b336000908152600260205260409020546107659082610ad3565b33600090815260026020526040808220929092556001546001600160a01b0316815220546107939082610af2565b6001546001600160a01b0390811660009081526002602052604080822093909355600454925192909116913480156108fc0292909190818181858888f193505050501580156107e6573d6000803e3d6000fd5b506007546107f49034610ad3565b600755604080513381523460208201529081018290527f4ae4bd7655e0d350876a23cd90c4227b13db560e34435c6a488150a9c844bf5f9060600160405180910390a1600191505090565b6001546001600160a01b0316331461085657600080fd5b600d80546001919060ff191682805b0217905550565b336000908152600260205260408120548211156108c05760405162461bcd60e51b8152602060048201526012602482015271496e73756666696369656e742066756e647360701b6044820152606401610600565b3360008181526003602090815260408083206001600160a01b03881680855290835292819020869055518581529192917f8c5be1e5ebec7d5bd14f71427d1e84f3dd0314c0f7b2291e5b200ac8c7c3b92591015b60405180910390a350600192915050565b6000600a54421161093557600080fd5b610940848484610afe565b506001949350505050565b60006003600d5460ff16600381111561096657610966610ee2565b14156109725750600390565b6008544210156109825750600090565b600954421115801561099657506008544210155b156109a15750600190565b50600290565b60006109b161094b565b600d805460ff191660018360038111156109cd576109cd610ee2565b02179055506002600d5460ff1660038111156109eb576109eb610ee2565b14610a2b5760405162461bcd60e51b815260206004820152601060248201526f49434f206e6f7420636f6d706c65746560801b6044820152606401610600565b50600180546001600160a01b031660009081526002602052604081205590565b6001546001600160a01b03163314610a6257600080fd5b600d80546003919060ff1916600183610865565b6001546001600160a01b03163314610a8d57600080fd5b600480546001600160a01b0319166001600160a01b0392909216919091179055565b6000600a544211610abf57600080fd5b610ac98383610c4b565b5060019392505050565b6000610adf8284610e7e565b9392505050565b6000610adf8284610e96565b6000610adf8284610eb5565b6001600160a01b0383166000908152600360209081526040808320338452909152812054821015610b2e57600080fd5b6001600160a01b038416600090815260026020526040902054821115610b5357600080fd5b6001600160a01b038416600090815260026020526040902054610b769083610af2565b6001600160a01b038086166000908152600260205260408082209390935590851681522054610ba59083610ad3565b6001600160a01b038085166000908152600260209081526040808320949094559187168152600382528281203382529091522054610be39083610af2565b6001600160a01b03858116600081815260036020908152604080832033845282529182902094909455518581529186169290917fddf252ad1be2c89b69c2b068fc378daa952ba7f163c4a11628f55a4df523b3ef910160405180910390a35060019392505050565b33600090815260026020526040812054821115610ca15760405162461bcd60e51b8152602060048201526014602482015273496e73756666696369656e742042616c616e636560601b6044820152606401610600565b6001600160a01b038316600090815260026020526040902054610cc49083610ad3565b6001600160a01b038416600090815260026020526040808220929092553381522054610cf09083610af2565b3360008181526002602090815260409182902093909355518481526001600160a01b038616927fddf252ad1be2c89b69c2b068fc378daa952ba7f163c4a11628f55a4df523b3ef9101610914565b600060208284031215610d5057600080fd5b8135610adf81610ef8565b60008060408385031215610d6e57600080fd5b8235610d7981610ef8565b91506020830135610d8981610ef8565b809150509250929050565b600080600060608486031215610da957600080fd5b8335610db481610ef8565b92506020840135610dc481610ef8565b929592945050506040919091013590565b60008060408385031215610de857600080fd5b8235610df381610ef8565b946020939093013593505050565b6020810160048310610e2357634e487b7160e01b600052602160045260246000fd5b91905290565b600060208083528351808285015260005b81811015610e5657858101830151858201604001528201610e3a565b81811115610e68576000604083870101525b50601f01601f1916929092016040019392505050565b60008219821115610e9157610e91610ecc565b500190565b6000816000190483118215151615610eb057610eb0610ecc565b500290565b600082821015610ec757610ec7610ecc565b500390565b634e487b7160e01b600052601160045260246000fd5b634e487b7160e01b600052602160045260246000fd5b6001600160a01b0381168114610f0d57600080fd5b5056fea26469706673582212208ab8e0ce600d2678ac94b8a128e9f48c033dc7f1507b0b0fcc75f4a8b505b08664736f6c63430008050033",
    "linkReferences": {},
    "deployedLinkReferences": {}
}