{
    "_format": "hh-sol-artifact-1",
    "contractName": "Barbs",
    "sourceName": "contracts/Projects/BarbCoin.sol",
    "abi": [
        {
            "inputs": [],
            "stateMutability": "nonpayable",
            "type": "constructor"
        },
        {
            "anonymous": false,
            "inputs": [
                {
                    "indexed": true,
                    "internalType": "address",
                    "name": "owner",
                    "type": "address"
                },
                {
                    "indexed": true,
                    "internalType": "address",
                    "name": "spender",
                    "type": "address"
                },
                {
                    "indexed": false,
                    "internalType": "uint256",
                    "name": "value",
                    "type": "uint256"
                }
            ],
            "name": "Approval",
            "type": "event"
        },
        {
            "anonymous": false,
            "inputs": [
                {
                    "indexed": true,
                    "internalType": "address",
                    "name": "from",
                    "type": "address"
                },
                {
                    "indexed": true,
                    "internalType": "address",
                    "name": "to",
                    "type": "address"
                },
                {
                    "indexed": false,
                    "internalType": "uint256",
                    "name": "value",
                    "type": "uint256"
                }
            ],
            "name": "Transfer",
            "type": "event"
        },
        {
            "inputs": [
                {
                    "internalType": "address",
                    "name": "owner",
                    "type": "address"
                },
                {
                    "internalType": "address",
                    "name": "spender",
                    "type": "address"
                }
            ],
            "name": "allowance",
            "outputs": [
                {
                    "internalType": "uint256",
                    "name": "",
                    "type": "uint256"
                }
            ],
            "stateMutability": "view",
            "type": "function"
        },
        {
            "inputs": [
                {
                    "internalType": "address",
                    "name": "",
                    "type": "address"
                },
                {
                    "internalType": "address",
                    "name": "",
                    "type": "address"
                }
            ],
            "name": "allowed",
            "outputs": [
                {
                    "internalType": "uint256",
                    "name": "",
                    "type": "uint256"
                }
            ],
            "stateMutability": "view",
            "type": "function"
        },
        {
            "inputs": [
                {
                    "internalType": "address",
                    "name": "spender",
                    "type": "address"
                },
                {
                    "internalType": "uint256",
                    "name": "value",
                    "type": "uint256"
                }
            ],
            "name": "approve",
            "outputs": [
                {
                    "internalType": "bool",
                    "name": "",
                    "type": "bool"
                }
            ],
            "stateMutability": "nonpayable",
            "type": "function"
        },
        {
            "inputs": [
                {
                    "internalType": "address",
                    "name": "who",
                    "type": "address"
                }
            ],
            "name": "balanceOf",
            "outputs": [
                {
                    "internalType": "uint256",
                    "name": "",
                    "type": "uint256"
                }
            ],
            "stateMutability": "view",
            "type": "function"
        },
        {
            "inputs": [
                {
                    "internalType": "address",
                    "name": "",
                    "type": "address"
                }
            ],
            "name": "balances",
            "outputs": [
                {
                    "internalType": "uint256",
                    "name": "",
                    "type": "uint256"
                }
            ],
            "stateMutability": "view",
            "type": "function"
        },
        {
            "inputs": [],
            "name": "decimals",
            "outputs": [
                {
                    "internalType": "uint256",
                    "name": "",
                    "type": "uint256"
                }
            ],
            "stateMutability": "view",
            "type": "function"
        },
        {
            "inputs": [],
            "name": "founder",
            "outputs": [
                {
                    "internalType": "address",
                    "name": "",
                    "type": "address"
                }
            ],
            "stateMutability": "view",
            "type": "function"
        },
        {
            "inputs": [],
            "name": "name",
            "outputs": [
                {
                    "internalType": "string",
                    "name": "",
                    "type": "string"
                }
            ],
            "stateMutability": "view",
            "type": "function"
        },
        {
            "inputs": [],
            "name": "symbol",
            "outputs": [
                {
                    "internalType": "string",
                    "name": "",
                    "type": "string"
                }
            ],
            "stateMutability": "view",
            "type": "function"
        },
        {
            "inputs": [],
            "name": "totalSupply",
            "outputs": [
                {
                    "internalType": "uint256",
                    "name": "",
                    "type": "uint256"
                }
            ],
            "stateMutability": "view",
            "type": "function"
        },
        {
            "inputs": [
                {
                    "internalType": "address",
                    "name": "to",
                    "type": "address"
                },
                {
                    "internalType": "uint256",
                    "name": "value",
                    "type": "uint256"
                }
            ],
            "name": "transfer",
            "outputs": [
                {
                    "internalType": "bool",
                    "name": "",
                    "type": "bool"
                }
            ],
            "stateMutability": "nonpayable",
            "type": "function"
        },
        {
            "inputs": [
                {
                    "internalType": "address",
                    "name": "from",
                    "type": "address"
                },
                {
                    "internalType": "address",
                    "name": "to",
                    "type": "address"
                },
                {
                    "internalType": "uint256",
                    "name": "value",
                    "type": "uint256"
                }
            ],
            "name": "transferFrom",
            "outputs": [
                {
                    "internalType": "bool",
                    "name": "",
                    "type": "bool"
                }
            ],
            "stateMutability": "nonpayable",
            "type": "function"
        }
    ],
    "bytecode": "0x608060405234801561001057600080fd5b50693f870857a3e0e38000006000818155600180546001600160a01b031916339081179091558152600260205260409020556107c8806100516000396000f3fe608060405234801561001057600080fd5b50600436106100b45760003560e01c80634d853ee5116100715780634d853ee51461016d5780635c6581651461019857806370a08231146101c357806395d89b41146101ec578063a9059cbb14610210578063dd62ed3e1461022357600080fd5b806306fdde03146100b9578063095ea7b3146100f857806318160ddd1461011b57806323b872dd1461013257806327e235e314610145578063313ce56714610165575b600080fd5b6100e26040518060400160405280600a8152602001692130b931399021b7b4b760b11b81525081565b6040516100ef91906106f8565b60405180910390f35b61010b6101063660046106ce565b61025c565b60405190151581526020016100ef565b61012460005481565b6040519081526020016100ef565b61010b610140366004610692565b61031a565b610124610153366004610644565b60026020526000908152604090205481565b610124601281565b600154610180906001600160a01b031681565b6040516001600160a01b0390911681526020016100ef565b6101246101a636600461065f565b600360209081526000928352604080842090915290825290205481565b6101246101d1366004610644565b6001600160a01b031660009081526002602052604090205490565b6100e260405180604001604052806005815260200164424152425360d81b81525081565b61010b61021e3660046106ce565b610516565b61012461023136600461065f565b6001600160a01b03918216600090815260036020908152604080832093909416825291909152205490565b336000908152600260205260408120548211156102b55760405162461bcd60e51b8152602060048201526012602482015271496e73756666696369656e742066756e647360701b60448201526064015b60405180910390fd5b3360008181526003602090815260408083206001600160a01b03881680855290835292819020869055518581529192917f8c5be1e5ebec7d5bd14f71427d1e84f3dd0314c0f7b2291e5b200ac8c7c3b92591015b60405180910390a350600192915050565b6001600160a01b03831660009081526003602090815260408083203384529091528120548210156103a55760405162461bcd60e51b815260206004820152602f60248201527f52657175657374696e67206163636f756e742061736b696e6720666f72206d6f60448201526e1c99481d1a185b88185b1b1bddd959608a1b60648201526084016102ac565b6001600160a01b03841660009081526002602052604090205482111561041e5760405162461bcd60e51b815260206004820152602860248201527f53656e64696e67206163636f756e742068617320696e73756666696369656e746044820152672062616c616e636560c01b60648201526084016102ac565b6001600160a01b0384166000908152600260205260409020546104419083610609565b6001600160a01b038086166000908152600260205260408082209390935590851681522054610470908361061c565b6001600160a01b0380851660009081526002602090815260408083209490945591871681526003825282812033825290915220546104ae9083610609565b6001600160a01b03858116600081815260036020908152604080832033845282529182902094909455518581529186169290917fddf252ad1be2c89b69c2b068fc378daa952ba7f163c4a11628f55a4df523b3ef910160405180910390a35060019392505050565b3360009081526002602052604081205482111561056c5760405162461bcd60e51b8152602060048201526014602482015273496e73756666696369656e742042616c616e636560601b60448201526064016102ac565b6001600160a01b03831660009081526002602052604090205461058f908361061c565b6001600160a01b0384166000908152600260205260408082209290925533815220546105bb9083610609565b3360008181526002602090815260409182902093909355518481526001600160a01b038616927fddf252ad1be2c89b69c2b068fc378daa952ba7f163c4a11628f55a4df523b3ef9101610309565b60006106158284610765565b9392505050565b6000610615828461074d565b80356001600160a01b038116811461063f57600080fd5b919050565b60006020828403121561065657600080fd5b61061582610628565b6000806040838503121561067257600080fd5b61067b83610628565b915061068960208401610628565b90509250929050565b6000806000606084860312156106a757600080fd5b6106b084610628565b92506106be60208501610628565b9150604084013590509250925092565b600080604083850312156106e157600080fd5b6106ea83610628565b946020939093013593505050565b600060208083528351808285015260005b8181101561072557858101830151858201604001528201610709565b81811115610737576000604083870101525b50601f01601f1916929092016040019392505050565b600082198211156107605761076061077c565b500190565b6000828210156107775761077761077c565b500390565b634e487b7160e01b600052601160045260246000fdfea2646970667358221220cd3c62acc5e5b72c0e0bc4b6b101f42d544af939d01b4a88a5ffd4fdf1d18fcc64736f6c63430008050033",
    "linkReferences": {},
    "deployedLinkReferences": {}
}